:060000000200190201607C
:03000B000201F8F7
:030013000200CA1E
:0300720002001673
:030016000200994C
:20007500758901758CFF758AF6D28C22AE82AF83EE4F600F7D6EED14FCFD70FA1EBEFF01BE
:200095001F80ED22E4F508F509750A06F50BF50CF50D90039193F50EA3E493F50FD288D232
:2000B500A8D28AD2AAD2AFD2A990034CE493F58012007580FEC020C0E0C0F0C082C083C06A
:2000D50007C006C005C004C003C002C001C000C0D075D000C28C90000A12008120B34D053A
:2000F5000AE4B50A02050BC37407950AE4950B5006750A07750B00E50A2446F582E50B347B
:2001150003F583E493F580E50A250AFEE50B33FFEE2485F582EF3403F583E493F50EA3E478
:2001350093F50FE4F50CF50DF508F509D28CD0D0D000D001D002D003D004D005D006D00797
:20015500D083D082D0F0D0E0D02032C020C0E0C0F0C082C083C007C006C005C004C003C005
:2001750002C001C000C0D075D000C28C90000A12008120B24F150A74FFB50A02150BC3E55B
:200195000A9401E50B94005006750A01750B00E50A2446F582E50B3403F583E493F580E591
:2001B5000A250AFEE50B33FFEE2485F582EF3403F583E493F50EA3E493F50FE4F50CF50DA6
:2001D500F508F509D28CD0D0D000D001D002D003D004D005D006D007D083D082D0F0D0E060
:2001F500D02032C020C0E0C0F0C082C083C007C006C005C004C003C002C001C000C0D075F2
:20021500D000C28C758CFF758AF6850C14850D15850E82850F83120325858210858311E5EF
:200235000E2510F512E50F3511F5130508E4B508020509AE0AE50BCE25E0CE33CE25E0CE42
:2002550033FFEE2465F582EF3403F583E493FCA3E493FDA3E493FEA3E493FFA808A909E4CA
:20027500FAFBE8B50415E9B50511EAB5060DEBB50709E4F508F509F50CF50DE512B5080D05
:20029500E513B50908050CE4B50C02050DE50C2450F582E50D3403F583E493FF8F147515A1
:2002B50000850E82850F831203257514FF7515001202FCAE82AF83EE2510FEEF3511FFC327
:2002D500EE9508EF950992A0D28CD0D0D000D001D002D003D004D005D006D007D083D08280
:0702F500D0F0D0E0D0203270
:200346003F065B4F666D7D077F6F0080A7CBE7F9FFF9E7CBA780583418060006183458006C
:20036600000000140000003C00000064000000F4010000D0070000204E0000A08601000062
:0F0386000001000300050019006400E80388135C
:2002FC007A10E4FBFCE58225E0F582E58333F583EB33FBEC33FCEB9514F5F0EC95154006FE
:09031C00FCABF0438201DADD22A2
:06004800E478FFF6D8FD8C
:200026007900E94400601B7A00900395780175A000E493F2A308B8000205A0D9F4DAF275E8
:02004600A0FF19
:1D032500E5828514F0A4C582C0F08515F0A4D0F025F0C5838514F0A42583F5832276
:20004E007800E84400600A790175A000E4F309D8FC7800E84400600C7900900001E4F0A3B0
:04006E00D8FCD9FAE7
:0D001900758120120342E58260030200168B
:04034200758200229E
:00000001FF
