:04000000020029329F
:03000B0002018A65
:0100130032BA
:01001B0032B2
:030023000203C90C
:10008200750801750902750A03750B04750C05756F
:100092000D06750E07750F017510027511037512A5
:1000A2000475130575140675150775160175170283
:0300B20002002623
:03002600020101D3
:1000B50085829910990280FB22AD82AE83AFF08DC7
:1000C500828E838FF01203F6FC60188C820DBD00C2
:1000D500010EC007C006C0051200B5D005D006D078
:1000E5000780DC22AE82AF83EE4F600F7D6EED148C
:1000F500FCFD70FA1EBEFF011F80ED22D288D2A83A
:10010500D28AD2AAD2A9D2ABD2AF7589017598503D
:10011500438920438780758DF3758BF3D2AC755A6F
:1001250000755800758CFF758AF6D28CD28E9000BA
:10013500641200E990043675F0801200BE900493B5
:1001450075F0801200BEE55860FC755800C28C75CC
:100155005A00E55A255A25E02418F8760008760055
:10016500087600087600E55A2408F9E7FF24D0F759
:10017500055A74F0255A50DA9004BE75F0801200C5
:10018500BED28C80C1C0E0C0F0C082C083C007C0B1
:1001950006C005C004C003C002C001C000C0D075C0
:1001A500D000758CFF758AF675900075A000755A9C
:1001B50000E55A255A25E02418F987040987050919
:1001C50087060987071919190CBC00090DBD00051B
:1001D5000EBE00010FA70409A70509A70609A70771
:1001E500191919E55A255A25E02418F9875B098755
:1001F5005C09875D09875E191919E55A2408F8E62F
:1002050075F004A42416F582740435F0F583E4939F
:10021500FAA3E493FBA3E493FEA3E493FFEAB55B9F
:100225001AEBB55C16EEB55D12EFB55E0E770009FB
:100235007700097700097700191919E55A255A2514
:10024500E02418F9875B09875C09875D09875E19D2
:100255001919E55A2408F9E775F004A42416F5825E
:10026500740435F0F583E493FAA3E493FBA3E493D4
:10027500FEA3E493C313FFEE13FEEB13FBEA13FA9D
:10028500C3955BEB955CEE955DEF955E5011855AD8
:10029500F005F07401800225E0D5F0FBFF429005E2
:1002A5005A74F8255A40030201B6755A08E55A25CD
:1002B5005A25E02418F9870409870509870609875F
:1002C500071919190CBC00090DBD00050EBE00016A
:1002D5000FA70409A70509A70609A707191919E50D
:1002E5005A255A25E02418F9875B09875C09875D3B
:1002F50009875E191919E55A2408F8E675F004A46A
:100305002416F582740435F0F583E493FAA3E49397
:10031500FBA3E493FEA3E493FFEAB55B1AEBB55C9C
:1003250016EEB55D12EFB55E0E7700097700097719
:1003350000097700191919E55A255A25E02418F9F5
:10034500875B09875C09875D09875E191919E55A75
:100355002408F9E775F004A42416F582740435F031
:10036500F583E493FAA3E493FBA3E493FEA3E49358
:10037500C313FFEE13FEEB13FBEA13FAC3955BEB16
:10038500955CEE955DEF955E5014E55A24F8F5F011
:1003950005F07401800225E0D5F0FBFF42A0055A67
:1003A50074F0255A40030202B2D0D0D000D001D05B
:1003B50002D003D004D005D006D007D083D082D098
:1003C500F0D0E032C0E0C000C0D075D000C2AC10A3
:1003D50098028014E5592408F8A69905597410B5B2
:1003E5005906755900755801D2ACD0D0D000D0E06F
:0103F50032D5
:10041600000000001400000032000000640000002C
:10042600F4010000D0070000204E0000A086010065
:1004360048656C6C6F48656C6C6F48656C6C6F4892
:10044600656C6C6F48656C6C6F48656C6C6F486565
:100456006C6C6F48656C6C6F48656C6C6F48656C4E
:100466006C6F48656C6C6F48656C6C6F48656C6C3E
:100476006F48656C6C6F48656C6C6F48656C6C6F2B
:1004860048656C6C6F48656C6C6F0D0A00496E7040
:10049600757420313620636F6E7365637574697683
:1004A6006520696E74656765727320746F20736565
:1004B600742050574D0D0A0050574D2075706461D9
:0704C600746564210D0A00BA
:06005800E478FFF6D8FD7C
:100036007900E94400601B7A009004CD780175A030
:1000460000E493F2A308B8000205A0D9F4DAF27529
:02005600A0FF09
:10005E007800E84400600A790175A000E4F309D83D
:10006E00FC7800E84400600C7900900001E4F0A3F5
:04007E00D8FCD9FAD7
:0D00290075815E120412E58260030200265C
:1003F60020F71430F6148883A88220F507E6A88330
:1004060075830022E280F7E49322E02275820022BF
:00000001FF
